:071388004401C70000000052
:101EBA00C2AF53D7F920B2069001F47401F0122888
:101ECA003512267A12153612285C7F42122812D24F
:101EDA00AF750800750900750C00750D00751000C6
:101EEA007511007514007515009001F4E0FFEF708C
:101EFA004F7F007E007DC87C42900122E0F8A3E07B
:101F0A00F9A3E0FAA3E0FB1202D4501B7F007E0083
:101F1A007DC87CC290011EE0F8A3E0F9A3E0FAA311
:101F2A00E0FB1202D450097D027F0012279A800733
:101F3A007D037F0012279A7D007F001226F0801D04
:101F4A007D047F0012279A7D007F001226F09001FF
:101F5A00C01206EE000000007F001224AD1227DC3A
:101F6A007B007A00790C1207A87B007A00790812A4
:101F7A0016C97B007A0079101211B67B017A0179B1
:101F8A000A120FCD7B007A00791412207612285299
:031F9A0080CE22D4
:03001B000225F1CA
:1025F100C0E0C083C082C2AF050BE50B7002050AC3
:10260100050FE50F7002050E0513E51370020512A3
:102611000517E5177002051690010DE004F070062C
:1026210090010CE004F0758D8A758BD0D2AFD08209
:05263100D083D0E0326F
:0B16C9009001CBEBF0A3EAF0A3E9F0E6
:1016D4009001CE7401F09001CBE0FBA3E0FAA3E00B
:1016E400F91204C2FFAEF0EF8EF012074516FD00AA
:1016F40000172700720000183F9001CBE0FBA3E025
:10170400FAA3E0F9758202758300E475F00012050E
:10171400449001CBE0FBA3E0FAA3E0F9E475F07296
:101724001205259001CBE0FBA3E0FAA3E0F9758252
:10173400027583001204EDFFAEF090012CE0FCA3CF
:10174400E0FDC3EF9DEE9C4003D38001C340037FC3
:1017540000221225349001F4E0FFEF60030218190F
:1017640090014FE0FCA3E0FDA3E0FEA3E0FF121D07
:10177400C99001C71206E2900122E0FCA3E0FDA398
:10178400E0FEA3E0FF9001C7E0F8A3E0F9A3E0FACC
:10179400A3E0FB1202D4602640247D017F001227BF
:1017A400BB7D0F7F001226F0900122E0FCA3E0FD38
:1017B400A3E0FEA3E0FF9001C71206E2803C900183
:1017C4001EE0FCA3E0FDA3E0FEA3E0FF9001C7E060
:1017D400F8A3E0F9A3E0FAA3E0FB1202D4501490BA
:1017E400011EE0FCA3E0FDA3E0FEA3E0FF9001C71F
:1017F4001206E27D007F001227BB9001C7E0FCA324
:10180400E0FDA3E0FEA3E0FF9001C01206E27F002A
:101814001224AD800E1222C39001C01206E27F0092
:101824001224AD9001CBE0FBA3E0FAA3E0F9E47548
:10183400F0001205257F00220216FD9001CEE4F08F
:101844009001CBE0FBA3E0FAA3E0F9E475F0001209
:0418540005257F03E4
:01185800226D
:04138F004101F00028
:10267A0053D10053D20053E60043D28043D20043E1
:10268A00D2077F031228247F507E00122750E5E6E6
:10269A0054F8FFEF440DF5E6900126E0FFEF5407EA
:1026AA00FFE5D254F8FEEE4FF5D2D2AE43D1202246
:0300330002214A5D
:10214A00C0E0C083C082C0D0EEC0E0EFC0E0C2AF42
:10215A0090014EE0FFEFC39408506890014EE0FFF3
:10216A00EF25E025E0242EF582E43401F583E4F03E
:10217A0090014EE0FFEF25E025E0242FF582E434BC
:10218A0001F583E5DBF090014EE0FFEF25E025E065
:10219A002430F582E43401F583E5DAF090014EE06B
:1021AA0004F090014EE0FFEFC39408403DE5D2549D
:1021BA00F8FFEF4407F5D2E5E654F8FFEF440CF5D3
:1021CA00E68027900153E5DBF090014EE4F09001A0
:1021DA0026E0FFEF5407FFE5D254F8FEEE4FF5D2A2
:1021EA00E5E654F8FFEF440DF5E6C2DFD2AFD0E0E2
:0D21FA00FFD0E0FED0D0D082D083D0E03204
:102824009001EFEFF053D1F89001EFE0FFEF42D1C8
:012834002281
:102750009001E3EEF0A3EFF09001E3E0FEA3E0FFD1
:10276000CBEFCBCAEECAE4F9F87F557E057D007C3D
:07277000001226368FD4226F
:101F9D009001AFEBF0A3EAF0A3E9F09001B2EDF000
:101FAD009001B31206EE000000009001F0E4F090F5
:101FBD0001B2E0FF9001F0E0FEEEC39F5061C2AEB2
:101FCD009001B3E0FCA3E0FDA3E0FEA3E0FFECC0B5
:101FDD00E0EDC0E0EEC0E0EFC0E09001AFE0FBA3AC
:101FED00E0FAA3E0F99001F0E0FF75F004EFA4F53D
:101FFD008285F0831206B2D0E0FFD0E0FED0E0FD86
:10200D00D0E0FCEF2BFFEE3AFEED39FDEC38FC9005
:10201D0001B31206E2D2AE9001F0E004F080909090
:10202D0001B3E0FCA3E0FDA3E0FEA3E0FFECC0E004
:10203D00EDC0E0EEC0E0EFC0E09001B2E0FFCBEF0D
:10204D00CBE4FAF9F8D0E0FFD0E0FED0E0FDD0E02F
:10205D00FC1226369001B31206E29001B3E0FCA308
:08206D00E0FDA3E0FEA3E0FF8B
:012075002248
:102534007B017A01792E7D08121F9D90014F1206AE
:10254400E290014FE0FCA3E0FDA3E0FEA3E0FFEC7A
:10255400C0E0EDC0E0EEC0E0EFC0E0900153E0FF6A
:10256400E4FCFDFE7B007A04790078001205717B9F
:10257400FF7A0079007800122636C8ECC8C9EDC984
:10258400CAEECACBEFCBD0E0FFD0E0FED0E0FDD066
:10259400E0FCC3EF9BFFEE9AFEED99FDEC98FC90F6
:0625A400014F1206E222C5
:1022C3009001CF1206EE0000000090014FE0FCA346
:1022D300E0FDA3E0FEA3E0FFEC12034D9001CF125B
:1022E30006E29001CFE0FCA3E0FDA3E0FEA3E0FF44
:1022F3007B007A007900784B1202379001CF1206E7
:10230300E29001CFE0FCA3E0FDA3E0FEA3E0FF7BAE
:10231300007A00798078BF12003D9001CF1206E267
:10232300900126E0FFEF5407FF74017E00C8EFC859
:10233300088005C333CE33CED8F9FDCCEECCEC12F6
:1023430003527B0A7AD77923783C12012E9001CF6E
:10235300E0F8A3E0F9A3E0FAA3E0FB12012E900159
:10236300CF1206E29001CFE0FCA3E0FDA3E0FEA3C1
:02237300E0FF89
:012375002245
:10185900900195EBF0A3EAF0A3E9F0900198ECF080
:03186900A3EDF0FC
:10186C0090019CE4F0A3E4F09001A1E4F0900198C5
:10187C00E0FEA3E0FF90019AE0FCA3E0FDED2FFF5A
:10188C00EC3EFEC3EE94044006E47E007F00229002
:10189C000195E0FBA3E0FAA3E0F990019EEBF0A325
:1018AC00EAF0A3E9F090019CE4F0A3E4F090019835
:1018BC00E0FEA3E0FF90019CE0FCA3E0FDC3ED9FE4
:1018CC00EC9E40030219D2A2AFE433FF9001A1EFCA
:1018DC00F0C2AF90019CE0FEA3E0FFEF7802C333AF
:1018EC00CE33CED8F9FF90019EE0FBA3E0FAA3E043
:1018FC00F98F828E8312040CFF8FBC90019CE0FE4A
:10190C00A3E0FFEF7802C333CE33CED8F9FFEF2438
:10191C0001FFEE3400FE90019EE0FBA3E0FAA3E091
:10192C00F98F828E8312040CFF8FBD90019CE0FE18
:10193C00A3E0FFEF7802C333CE33CED8F9FFEF2408
:10194C0002FFEE3400FE90019EE0FBA3E0FAA3E060
:10195C00F98F828E8312040CFF8FBE90019CE0FEE7
:10196C00A3E0FFEF7802C333CE33CED8F9FFEF24D8
:10197C0003FFEE3400FE90019EE0FBA3E0FAA3E02F
:10198C00F98F828E8312040CFF8FBF90019AE0FEB8
:10199C00A3E0FF8EC78FC675B90575B9029001A17A
:1019AC00E0FFEF24FF92AF90019BE004F0700690F3
:1019BC00019AE004F090019DE004F0700690019C07
:0E19CC00E004F00218B990019CE0FEA3E0FFD9
:0119DA0022EA
:1019DB009001A2EBF0A3EAF0A3E9F09001A5ECF0E3
:0319EB00A3EDF079
:1019EE009001A9E4F0A3E4F09001AEE4F09001A51B
:1019FE00E0FEA3E0FF9001A7E0FCA3E0FDED2FFFCA
:101A0E00EC3EFEC3EE94044006E47E007F0022907E
:101A1E0001A2E0FBA3E0FAA3E0F99001ABEBF0A387
:101A2E00EAF0A3E9F09001A9E4F0A3E4F09001A597
:101A3E00E0FEA3E0FF9001A9E0FCA3E0FDC3ED9F53
:101A4E00EC9E4003021B4DA2AFE433FF9001AEEFBC
:101A5E00F0C2AF9001A7E0FEA3E0FF8EC78FC67560
:101A6E00B9019001A9E0FEA3E0FFEF7802C333CEE7
:101A7E0033CED8F9FF9001ABE0FBA3E0FAA3E0F977
:101A8E008F828E83E5BC1204399001A9E0FEA3E09B
:101A9E00FFEF7802C333CE33CED8F9FFEF2401FF28
:101AAE00EE3400FE9001ABE0FBA3E0FAA3E0F98F69
:101ABE00828E83E5BD1204399001A9E0FEA3E0FFFA
:101ACE00EF7802C333CE33CED8F9FFEF2402FFEE08
:101ADE003400FE9001ABE0FBA3E0FAA3E0F98F82A5
:101AEE008E83E5BE1204399001A9E0FEA3E0FFEF5C
:101AFE007802C333CE33CED8F9FFEF2403FFEE3492
:101B0E0000FE9001ABE0FBA3E0FAA3E0F98F828E1A
:101B1E0083E5BF1204399001AEE0FFEF24FF92AFD0
:101B2E009001A8E004F070069001A7E004F0900187
:101B3E00AAE004F070069001A9E004F0021A3B90AE
:071B4E0001A9E0FEA3E0FF86
:011B5500226D
:031393000118003E
:102812009001F1EFF09001F1E0FF8F18D2C085181E
:02282200C022D2
:0A285200C2AFD2C08518C0D2AF2279
:0300000002237662
:1023760043AF01787FE4F6D8FD9000007F007E0829
:0D238600E4F0A3DFFCDEFA7581180223CE1F
:102413009001F2EFF09001F2E0FFEF12071F242B7F
:1024230001246C02000024AC90014FE0FCA3E0FD0A
:10243300A3E0FEA3E0FF90010E1206E27B017A0106
:10244300790E90019AE4F0A37410F07D017C0012E0
:1024530018597B017A01791290019AE4F0A374115F
:10246300F07D017C001218592290014FE0FCA3E09B
:10247300FDA3E0FEA3E0FF9001161206E27B017AC2
:1024830001791690019AE4F0A37412F07D017C00A7
:102493001218597B017A01791A90019AE4F0A37416
:0A24A30013F07D017C00121859228D
:061DC9009001B71206E2D2
:101DCF009001BB1206EE0000000090010EE0F8A398
:101DDF00E0F9A3E0FAA3E0FB900116E0FCA3E0FD1D
:101DEF00A3E0FEA3E0FFC3EF9BFFEE9AFEED99FD8C
:101DFF00EC98FCEC12034DECC0E0EDC0E0EEC0E05F
:101E0F00EFC0E090010EE0F8A3E0F9A3E0FAA3E041
:101E1F00FB9001B7E0FCA3E0FDA3E0FEA3E0FFC34E
:101E2F00EF9BFFEE9AFEED99FDEC98FCEC12034D43
:101E3F00D0E0FBD0E0FAD0E0F9D0E0F8120237ECB6
:101E4F00C0E0EDC0E0EEC0E0EFC0E0900112E0F8BE
:101E5F00A3E0F9A3E0FAA3E0FB90011AE0FCA3E0F2
:101E6F00FDA3E0FEA3E0FF120039C8ECC8C9EDC91D
:101E7F00CAEECACBEFCBD0E0FFD0E0FED0E0FDD072
:101E8F00E0FC12012E900112E0F8A3E0F9A3E0FAB2
:101E9F00A3E0FB12003D9001BB1206E29001BBE0F4
:0A1EAF00FCA3E0FDA3E0FEA3E0FFAA
:011EB9002206
:10139600410156004201570000602801590C01091D
:1013A600FF0F000A0E0B05050504040303020801DE
:1013B600090000000000000000000000000000001E
:1013C60000000000004101810041018200440183C8
:1013D600000000004201870A0F4201890B04410107
:1013E6008B0541018C0041018D0142018E09FF41AF
:0B13F60001940041015400410155002A
:0B07A8009001D3EBF0A3EAF0A3E9F00E
:1007B3009001D67401F09001D3E0FBA3E0FAA3E02B
:1007C300F91204C2FFAEF0EF8EF012074507EC00FA
:1007D300000816003C0911004D0A3300560CED00C9
:1007E300D20D3800F500000D939001D3E0FBA3E098
:1007F300FAA3E0F9758202758300E475F00012052F
:10080300449001D3E0FBA3E0FAA3E0F9E475F03CE4
:100813001205259001D3E0FBA3E0FAA3E0F975826A
:10082300027583001204EDFFAEF0C3EF9402EE9461
:10083300004003D38001C340037F0022900194E072
:10084300FFEFC394014005900194E4F0900194E01C
:10085300FFEF25E0248EF582E43401F583E0FEA367
:10086300E0FF90015BEEF0A3EFF0900194E0FFEF67
:1008730025E02489F582E43401F583E0FEA3E0FF5B
:10088300900161EEF0A3EFF0900194E0FF748C2FE0
:10089300F582E43401F583E0FFEF700F900153E03C
:1008A300FFEFC4540FFD7F001226F0900194E0FF88
:1008B300EF25E02487F582E43401F583E0FEA3E02D
:1008C300FF90015FEEF0A3EFF0900194E0FFEF25BE
:1008D300E025E02490F582E43401F583E0FCA3E015
:1008E300FDA3E0FEA3E0FFEC12034D12002612036A
:1008F3008B9001831206E29001D6E4F09001D3E0DD
:10090300FBA3E0FAA3E0F9E475F04D12052590018D
:10091300D6E0FFEF70037F0122900194E0FFEF2503
:10092300E0248EF582E43401F583E0FEA3E0FFEFDB
:1009330064FF7003EE64096003020C13900182E408
:10094300F0900194E0FFEF25E02489F582E434017F
:10095300F583E0FEA3E0FF7E00EF5407FF900182E2
:10096300E0FD7C00D3ED9FEC9E4003020A4790011B
:1009730094E0FFEF25E02489F582E43401F583E078
:10098300FEA3E0FF7E00EF5407FFEF2401FFEE34E8
:1009930000FE900182E0FD7C00C3EF9DFFEE9CFE14
:1009A300EF7F00FEE4FCFDECC0E0EDC0E0EEC0E054
:1009B300EFC0E07B0A7A0079007800900183E0FCC5
:1009C300A3E0FDA3E0FEA3E0FF1205FCD0E0FFD00F
:1009D300E0FED0E0FDD0E0FCEB4FFFEA4EFEE94D38
:1009E300FDE84CFC900182E0FDED25E02463F582F7
:1009F300E43401F583EEF0A3EFF0900183E0FCA370
:100A0300E0FDA3E0FEA3E0FF7B0A7A007900780013
:100A13001205FC9001831206E29001D6E4F09001E6
:100A2300D3E0FBA3E0FAA3E0F9E475F05612052541
:100A33009001D6E0FFEF70037F0122900182E00472
:100A4300F0020944900194E0FF748B2FF582E434A3
:100A530001F583E0FFEF7003020B33900194E0FF95
:100A6300748B2FF582E43401F583E0FFEF25E02456
:100A730062F582E43401F583E0FFEF4480FFEFF099
:100A8300900194E0FFEF25E02489F582E43401F539
:100A930083E0FEA3E0FFEF5407FF900154EFF090D3
:100AA3000194E0FFEF25E02489F582E43401F58326
:100AB300E0FEA3E0FF7E00EF5407FF900194E0FD0A
:100AC300748B2DF582E43401F583E0FD7C00EF2D7A
:100AD300FFEE3CFEEF24FBFFEE34FFFE900154E0FB
:100AE300FD7C00D3ED9FEC9E4046900154E0FFEF68
:100AF30025E02463F582E43401F583E0FEA3E0FFFF
:100B03007E00EF540FFFEF4E7026900154E0FFEF8D
:100B130025E02464F582E43401F583E0FFEF440F1C
:100B2300FFEFF080028009900154E014F0020AA262
:100B3300900194E0FFEF25E025E02490F582E43472
:100B430001F583E0FCA3E0FDA3E0FEA3E0FF7B004F
:100B53007A0079007800D312069C401890016BE06C
:100B6300FEA3E0FFEF54F0FFEF440AFF90016BEEAA
:100B7300F0A3EFF0900194E0FF748C2FF582E4343E
:100B830001F583E0FFEF7003020C13900194E0FF83
:100B9300748D2FF582E43401F583E0FFEF707190DB
:100BA3000154E4F0900194E0FFEF25E02489F582FD
:100BB300E43401F583E0FEA3E0FF7E00EF5407FF7A
:100BC300EF2401FFEE3400FE900154E0FD7C00C3EE
:100BD300ED9FEC9E503A900154E0FFEF25E0246432
:100BE300F582E43401F583E0FFEF5400FFEFF0906A
:100BF3000154E0FFEF25E02464F582E43401F5833A
:100C0300E0FFEF440FFFEFF0900154E004F0809415
:100C1300900194E0FFEF12071F0C230000000C2744
:100C2300C28580159001D3E0FBA3E0FAA3E0F9E4C9
:100C330075F0001205257F0022900181E4F09001F8
:100C430094E0FFEF25E02489F582E43401F583E0A5
:100C5300FEA3E0FF7E00EF5407FFEF2406FFEE3410
:100C630000FE900181E0FD7C00C3ED9FEC9E4003FC
:100C7300020D75900181E0FFEF25E02459F582E430
:100C83003401F583E0FEA3E0FF900157EEF0A3EFFC
:100C9300F0900156E4F0900156E0FFEFC39410503A
:100CA30032900157E0FEA3E0FFEE3392B790015775
:100CB300E0FEA3E0FFEF25E0FFEE33FE900157EEE9
:100CC300F0A3EFF0D2B6000000C2B6900156E004E4
:100CD300F080C39001D6E4F09001D3E0FBA3E0FAE7
:100CE300A3E0F9E475F0D21205259001D6E0FFEFF9
:100CF30070037F0122900194E0FFEF12071F0D089C
:100D03000000000D0CD28580159001D3E0FBA3E019
:100D1300FAA3E0F9E475F0001205257F00229001A3
:100D2300D6E4F09001D3E0FBA3E0FAA3E0F9E47585
:100D3300F0F51205259001D6E0FFEF70037F012245
:100D4300900194E0FFEF12071F0D530000000D57B1
:100D5300C28580159001D3E0FBA3E0FAA3E0F9E498
:100D630075F0001205257F0022900181E004F00256
:100D73000C41900194E004F09001D3E0FBA3E0FA6E
:100D8300A3E0F9E475F0001205257F00220207ECC9
:100D93009001D6E4F09001D3E0FBA3E0FAA3E0F9DD
:090DA300E475F0001205257F0340
:010DAC002224
:0524AD009001BFEFF0FB
:1024B2009001C4E4F0A37401F09001C6E4F090012D
:1024C200BFE0FF748B2FF582E43401F583E0FFEF68
:1024D20014FF9001C6E0FEEEC39F501F9001C4E0BE
:1024E200FEA3E0FF7C007D0A12045B9001C4EEF0C3
:1024F200A3EFF09001C6E004F080C39001C4E0FCB9
:10250200A3E0FDE41203529001C0E0F8A3E0F9A3B6
:10251200E0FAA3E0FB12012E12038B9001BFE0FB55
:10252200EB25E025E02490F582E43401F5831206E0
:01253200E2C6
:012533002285
:1026BA009001E5EFF09001E6EDF09001E6E0FF7E93
:1026CA0000EF24FFFFEE34FFFE7E00EF5407FF9079
:1026DA0001E5E0FDED25E02489F582E43401F58386
:0626EA00EEF0A3EFF02268
:1026F0009001E7EFF09001E8EDF09001E8E0FFEFE6
:10270000540FFF7E00EE440AFE9001E7E0FDED2548
:10271000E02487F582E43401F583EEF0A3EFF022A4
:102720009001E9EFF09001EAEDF09001EAE0FFEFAF
:10273000540FFF7E00EE4409FE9001E9E0FDED2517
:10274000E0248EF582E43401F583EEF0A3EFF0226D
:10279A009001EBEFF09001ECEDF09001ECE0FF908E
:1027AA0001EBE0FE748B2EF582E43401F583EFF041
:0127BA0022FC
:1027BB009001EDEFF09001EEEDF09001EEE0FF9067
:1027CB0001EDE0FE748C2EF582E43401F583EFF01D
:0127DB0022DB
:0B2076009001D7EBF0A3EAF0A3E9F023
:102081009001DA7401F09001D7E0FBA3E0FAA3E03C
:10209100F91204C2FFAEF0EF8EF012074520AA003C
:1020A1000020D5015A000021309001D7E0FBA3E0C8
:1020B100FAA3E0F9758202758300E475F000120558
:1020C100449001D7E0FBA3E0FAA3E0F9740175F0B5
:1020D1005A1205259001D7E0FBA3E0FAA3E0F975B8
:1020E10082027583001204EDFFAEF0C3EF9464EE3B
:1020F10094004003D38001C340037F002290015527
:10210100E4F0900155E0FFEFC39401509C9001551C
:10211100E0FF748D2FF582E43401F583E0FFEF6475
:1021210001FFEFF0900155E004F080D60220AA9063
:1021310001DAE4F09001D7E0FBA3E0FAA3E0F9E4CF
:0821410075F0001205257F0373
:012149002273
:101536009001F3E4F09001F3E4F09001F3E0FFEFA3
:10154600C3940850229001F3E0FFEF25E025E02444
:101556002EF582E43401F5831206EE0000000090B9
:1015660001F3E004F080D390014EE4F090014F12B5
:1015760006EE00000000900153E4F01227FB7F0006
:101586007E007D007C00900112E0F8A3E0F9A3E064
:10159600FAA3E0FB1202D4401B7F007E007D7A7C1A
:1015A60044900112E0F8A3E0F9A3E0FAA3E0FB12ED
:1015B60002D4400A9001121206EE000000007F00DD
:1015C6007E007D7A7C4490011AE0F8A3E0F9A3E05E
:1015D600FAA3E0FB1202D46002501D7F007E007D5C
:1015E600007C0090011AE0F8A3E0F9A3E0FAA3E07A
:1015F600FB1202D46002500A90011A1206EE447AD7
:1016060000007F007E007D007C0090011EE0F8A3B4
:10161600E0F9A3E0FAA3E0FB1202D4401B7F007EB0
:10162600807D897C4490011EE0F8A3E0F9A3E0FAEE
:10163600A3E0FB1202D4400A90011E1206EE00003F
:1016460000007F007E807D897C44900122E0F8A323
:10165600E0F9A3E0FAA3E0FB1202D46002501D7F7A
:10166600007E007D007C00900122E0F8A3E0F9A353
:10167600E0FAA3E0FB1202D46002500A90012212A3
:1016860006EE4489800090012CE0FEA3E0FFD3EF34
:1016960094C8EE9400501190012CE0FEA3E0FFC325
:1016A600EF9402EE9400500990012CE4F0A374C864
:1016B600F0900126E0FFEFD39407400690012674D0
:0216C60007F02B
:0116C80022FF
:100003007B017A01790E90019AE4F0A37410F07DDC
:07001300087C0012185922BD
:1027FB007B017A01790E9001A7E4F0A37410F07DB0
:07280B00087C001219DB221A
:041401004101F400B1
:0B11B6009001DBEBF0A3EAF0A3E9F0EE
:1011C1009001DE7401F09001DBE0FBA3E0FAA3E003
:1011D100F91204C2FFAEF0EF8EF012074511FA00CA
:1011E100001241001A1297001E12DA0022130D009C
:1011F100291350002D0000136E9001F4E0FFEF6001
:10120100159001DBE0FBA3E0FAA3E0F9E475F0003F
:101211001205257F00229001DBE0FBA3E0FAA3E0A9
:10122100F9758202758300E475F00012054490019E
:10123100DBE0FBA3E0FAA3E0F9E475F01A1205255F
:101241009001DBE0FBA3E0FAA3E0F975820275836C
:10125100001204EDFFAEF0C3EF9432EE94004003B0
:10126100D38001C340037F002220B2739001DBE0F1
:10127100FBA3E0FAA3E0F9758202758300E475F03F
:10128100001205449001DBE0FBA3E0FAA3E0F9E4DE
:1012910075F01E1205259001DBE0FBA3E0FAA3E047
:1012A100F97582027583001204EDFFAEF0C3EF946D
:1012B100C8EE94004003D38001C340037F00222085
:1012C100B21D7F011224139001DBE0FBA3E0FAA31E
:1012D100E0F9E475F02212052520B2037F002220F7
:1012E100B3739001DBE0FBA3E0FAA3E0F97582029E
:1012F100758300E475F0001205449001DBE0FBA367
:10130100E0FAA3E0F9E475F0291205259001DBE08C
:10131100FBA3E0FAA3E0F97582027583001204EDE4
:10132100FFAEF0C3EF94C8EE94004003D38001C335
:1013310040037F002220B31D7F021224139001DBA2
:10134100E0FBA3E0FAA3E0F9E475F02D12052520F6
:10135100B3037F00229001DBE0FBA3E0FAA3E0F9F5
:10136100E475F0001205257F00220211FA9001DEDA
:10137100E4F09001DBE0FBA3E0FAA3E0F9E475F00F
:06138100001205257F03A8
:011387002243
:101CC90000BC01BD02BE03BF04B805B906BA07BB13
:101CD90008B409B50AB60BB70CB00DB10EB20FB303
:101CE90010AC11AD12AE13AF14A815A916AA17ABF3
:101CF90018A419A51AA61BA71CA01DA11EA21FA3E3
:101D0900209C219D229E239F24982599269A279BD2
:101D1900289429952A962B972C902D912E922F93C2
:101D2900308C318D328E338F34883589368A378BB2
:101D3900388439853A863B873C803D813E823F83A2
:101D490040FC41FD42FE43FF44F845F946FA47FB92
:101D590048F449F54AF64BF74CF04DF14EF24FF382
:101D690050EC51ED52EE53EF54E855E956EA57EB72
:101D790058E459E55AE65BE75CE05DE15EE25FE362
:101D890060DC61DD62DE63DF64D865D966DA67DB52
:101D990068D469D56AD66BD76CD06DD16ED26FD342
:101DA90070CC71CD72CE73CF74C875C976CA77CB32
:101DB90078C479C57AC67BC77CC07DC17EC27FC322
:1014050041000101410002004100030041000400C8
:10141500410005004100060041000700608000080A
:1014250000000000000000000000000000000000B7
:1014350000000000000000000000000000000000A7
:101445000000000000000000000000000000000097
:101455000000000000000000000000000000000087
:101465000000000000000000000000000000000077
:101475000000000000000000000000000000000067
:101485000000000000000000000000000000000057
:101495000000000000000000000000000000000047
:1014A50060800088D70000000000000000000000F8
:1014B5000000000000000000000000000000000027
:1014C5000000000000000000000000000000000017
:1014D5000000000000000000000000000000000007
:1014E50000000000000000000000000000000000F7
:1014F50000000000000000000000000000000000E7
:1015050000000000000000000000000000000000D6
:1015150000000000000000000000000000000000C6
:1015250000000000410108C0410109FF4100000021
:03002300020DAD1E
:100DAD00C0E0C083C082C0D0E8C0E0ECC0E0EDC0C0
:100DBD00E0EEC0E0EFC0E0C2AF209803020F12904A
:100DCD000003E0FFEFD39480400B90010AE4F0A301
:100DDD00E4F0020FB5900109E599F0900109E0FFEB
:100DED00EF12071F0E68000E23290DFED700000E0F
:100DFD0096900109E0FF900003E0FE74082EF58245
:100E0D00E43400F583EFF0900003E004F090000669
:100E1D007401F0020EB7900006E0FFEFB4011990D7
:100E2D000008E4F090000974D7F090000A7429F0DE
:100E3D009000037403F0801C900109E0FF90000303
:100E4D00E0FE74082EF582E43400F583EFF0900097
:100E5D0003E004F0900006E4F0804F900006E0FF00
:100E6D00EFB40107900006E4F0803F900109E0FF28
:100E7D00900003E0FE74082EF582E43400F583EF54
:100E8D00F0900003E004F08021900109E0FF900054
:100E9D0003E0FE74082EF582E43400F583EFF09044
:100EAD000003E004F0900006E4F0900003E0FFEF93
:100EBD00D39406402F900007E0FF7E00EF2406FF3D
:100ECD00EE3400FE900003E0FD7C00ED6F7002EC4F
:100EDD006E70309000027401F0C2ACC29C9000069E
:100EED00E4F0801F900003E0FFEFB40616900003BE
:100EFD00E0FF74072FF582E43400F583E0FF9000E6
:100F0D0007EFF0C298209903020FB3900005E0FFA0
:100F1D00900004E0FEEEC39F400A900006E0FFEF54
:100F2D006401706E900004E0FFEFC39403501B90BA
:100F3D000004E0FF74882FF582E43400F583E0FFB0
:100F4D008F99900004E004F0805A900006E0FFEFC6
:100F5D007036900004E0FF74882FF582E43400F5BC
:100F6D0083E0FFEFB4D7069000067401F090000403
:100F7D00E0FF74882FF582E43400F583E0FF8F994C
:100F8D00900004E004F0801C759900900006E4F0D8
:100F9D008012900004E4F0900006E4F090010AE461
:100FAD00F0A3E4F0C299D2AFD0E0FFD0E0FED0E0E4
:100FBD00FDD0E0FCD0E0F8D0D0D082D083D0E032AC
:1027DC00C299C298E4900003F0A3F0A3F0C2B5A391
:0F27EC00F090010874C0F0E490010AF0A3F0220D
:10220700E4FB900088F0A374D7F0A37429F0900042
:1022170001E090008BF0A37402F0A37419F0900111
:102227001AE0FCA3E0FDA3E0FEA3E0FF90008E12FE
:1022370006E2900112E0FCA3E0FDA3E0FEA3E0FFAD
:102247009000921206E2900122E0FCA3E0FDA3E0D9
:10225700FEA3E0FF9000961206E290011EE0FCA3A9
:10226700E0FDA3E0FEA3E0FF90009A1206E29001D2
:1022770026E090009EF090012CE0FEA3E0FF7C009A
:102287007D0A12045B90009FEEF0A3EFF0E4742741
:102297002BF582E43401F583E0FF74A12BF582E48A
:1022A7003400F583EFF00BEBB405E37E007F897D07
:0B22B7001D1227779000A6EFF07F1F9C
:0122C20022F9
:101B5600E49001F5F0FFFEFDFC900012E0F8A3E032
:101B6600F9A3E0FAA3E0FB1202D44014900012E0BD
:101B7600FCA3E0FDA3E0FEA3E0FF9001121206E243
:101B8600E4FFFE7D7A7C4490000EE0F8A3E0F9A322
:101B9600E0FAA3E0FB1202D46002501490000EE0BB
:101BA600FCA3E0FDA3E0FEA3E0FF90011A1206E20B
:101BB600E4FFFEFDFC90001AE0F8A3E0F9A3E0FACA
:101BC600A3E0FB1202D4401490001AE0FCA3E0FD4F
:101BD600A3E0FEA3E0FF90011E1206E27F007E80D6
:101BE6007D897C44900016E0F8A3E0F9A3E0FAA30F
:101BF600E0FB1202D460025014900016E0FCA3E051
:101C0600FDA3E0FEA3E0FF9001221206E290001F72
:101C1600E0FEA3E0FF7C007D0A12046DD3EF94C8BA
:101C2600EE9400500890012CEEF0A3EFF090001E09
:101C3600E05407FFD394075005900126EFF0E4FF28
:101C4600FE7DC87C42900122E0F8A3E0F9A3E0FA09
:101C5600A3E0FB1202D4501AE4FFFE7DC87CC290BA
:101C6600011EE0F8A3E0F9A3E0FAA3E0FB1202D418
:101C760050097D02E4FF12279A80077D03E4FF12D4
:101C8600279A9001F4E060077D04E4FF12279AE4A6
:101C96009001F5F09001F5E0FF2421F582E434008F
:101CA600F583E0FE74272FF582E43401F583EEF028
:101CB6009001F5E004F0E0B405DA120003E4FF1247
:021CC60025AA4D
:011CC80022F9
:0C2846009001087440F0E4FF1225AA2263
:1025AA00E4900088F0A374D7F0A37429F090000196
:1025BA00E090008BF090000CE090008FF090008C7F
:1025CA0074FFF0900108E090008EF0900090EFF018
:1025DA0090008D7404F07E007F887D091227779021
:0725EA000091EFF07F0A22CF
:0B0FCD009001DFEBF0A3EAF0A3E9F0D5
:100FD8009001E27401F09001DFE0FBA3E0FAA3E0E6
:100FE800F91204C2FFAEF0EF8EF0120745100900A7
:100FF80000102B015B10B90169115B018C00001115
:101008009C900003E4F0D29CC2B5D2ACC298C299BD
:101018009001DFE0FBA3E0FAA3E0F9740175F05B4F
:10102800120525900002E0FFEF70037F0022900078
:1010380002E4F0900001E0FF90000BE0FEEE6F602C
:10104800159001DFE0FBA3E0FAA3E0F9E475F000F6
:101058001205257F0022900003E0FF74072FF58218
:10106800E43400F583E0FF900000EFF07E007F0895
:10107800900003E0FDED14FD122777900000E0FEDC
:10108800EF6E60159001DFE0FBA3E0FAA3E0F9E45E
:1010980075F0001205257F00229001E2E4F090012E
:1010A800DFE0FBA3E0FAA3E0F9740175F06912052B
:1010B800259001E2E0FFEF70037F012290000CE031
:1010C800FFEFB4010A122207900005EFF08011909B
:1010D800000CE0FFEFB40908121B56900005EFF072
:1010E800900005E0FFEF70179001DFE0FBA3E0FA46
:1010F800A3E0F9E475F0001205257F0022807DD277
:10110800B5C29C900004E4F0900006E4F0D2AC90E4
:101118000004E0FF74882FF582E43400F583E0FFD3
:101128008F99900004E004F09001DFE0FBA3E0FA5F
:10113800A3E0F9758202758300E475F00012054496
:101148009001DFE0FBA3E0FAA3E0F9740175F08CED
:101158001205259001DFE0FBA3E0FAA3E0F9758210
:10116800027583001204EDFFAEF0C3EF9432EE94E3
:10117800004003D38001C340037F00229001DFE0D9
:10118800FBA3E0FAA3E0F9E475F0001205257F005F
:10119800220210099001E2E4F09001DFE0FBA3E0F5
:0D11A800FAA3E0F9E475F0001205257F03BD
:0111B5002217
:10277700E4FCCBEDCB1DEB60160FEFCAEECA700180
:102787000E14F5828A83E06C901CC993FC80E3CF1A
:02279700ECCF85
:01279900221D
:0A285C00759E82759D2D759852221D
:1028350053890F438910758D8A758BD0D2ABD28E93
:012845002270
:100036000203F7E86480F8E933E83360110460F0FE
:10004600ED33EC337009E8FCE9FDEAFEEBFF220430
:1000560060DED3EB9FEA9EE99DE8C2E78CF0C2F72B
:1000660095F0400CE8CCF8E9CDF9EACEFAEBCFFBF7
:100076001203C285D0F05804700320D5B3E804708B
:10008600075002B2D502040192D5EC0460F7E4CC25
:10009600C0E0C398F8603B94186008400DD0E0FBC0
:1000A6000203D9E4FBFAC9FC8028E830E406E4C977
:1000B600FBE4CAFCE830E305E4C9CACBFCE8540714
:1000C6006010F8C3E913F9EA13FAEB13FBEC13FC1F
:1000D600D8F130F52FC3E49CFCEF9BFFEE9AFEEDC2
:1000E60099FDD0E0FBEF4E4D4C701222DB0302036C
:1000F600FEEC2CFCEF33FFEE33FEED33FDED30E787
:10010600EB0203D9EF2BFFEE3AFEED39FDD0E0FB13
:1001160050130BBB0003020401ED13FDEE13FEEFBB
:0801260013FFEC13FC0203D9E6
:10012E00EC4D6011E8497017ED33EC3304600DE4CB
:10013E00FCFFFEFD22E933E8330470F80203F712E8
:10014E0003C258046009E4CC2481500628500902E9
:10015E0004012840030203FEC0E0EB4A7044B9805C
:10016E0006D0E0FB0203EDEF4E701CBD8008EBFFE6
:10017E00EAFEE9FD80EBE98DF0A4FEE5F002021740
:10018E00E9CDF9EAFEEBFFEF89F0A4FCE5F0CE89AC
:10019E00F0A42EFFE435F0CD89F0A42DFEE435F069
:1001AE008067EF4E7005BD80D780C3EF8BF0A4AC97
:1001BE00F0EE8BF0A42CFCE435F0F8EF8AF0A42CD2
:1001CE00E5F038FCE433CB8DF0A42CFCE5F03BF8E5
:1001DE00EE8AF0A42CFCE5F038F8E433CF89F0A4D5
:1001EE002CFCE5F038CF3400CE89F0A42FFFE5F0DB
:1001FE003EFEE433C98DF0A42EFEE5F039CD8AF033
:10020E00A42FFFE5F03EFEE43DFD33D0E0FB5007AA
:10021E000BBB000F020401EC2CFCEF33FFEE33FEA0
:06022E00ED33FD0203D9CF
:10023400020401EC5D046005E8590470030203F74D
:100244001203C2580460F6EC4860F2EC7004FDFE40
:10025400FF22C860DB2481C85009C398600250069D
:100264000203FE9850CAF582E9294B4A7005AB8215
:100274000203ED75F0007C1A7880C3EF9BEE9AEDD3
:1002840099400DC3EF9BFFEE9AFEED99FDE842F015
:10029400DC23ACF0D0E0FFD0E0FED0E0FDAB822068
:1002A400E7101BEB60BAEC2CFCEF33FFEE33FEEDF2
:1002B40033FD0203D9E803F830E705C0F075F00018
:1002C400EF2FFFEE33FEED33FD40B830E7C280AAD6
:1002D40074F8CC6480CCC86480C8F58204604FC3D1
:1002E400EB9FF5F0EA9E42F0E99D42F0E89C45F070
:1002F400603C501DE5825FFFE582D313CB5BCBF4FA
:100304002B5582FB50280ABA002409B90020088022
:100314001DE5825BFBE582D313CF5FCFF4C3132FBC
:100324005582FF50090EBE00050DBD00010CC3EB44
:100334009FF5F0EA9E42F0E99D42F0E89C45F060AA
:0903440007CC4820E701B3EC22CC
:10034D0075F020800E75F010800575F0087D007E2B
:10035D00007F003392D530D50312068EEC3340105A
:10036D00EF33FFEE33FEED33FDEC33FCD5F0ED2234
:0E037D00E5F0247EA2D513CC92E7CDCEFF2270
:10038B00EDD2E7CD33EC3392D524814006E4FFFE6A
:10039B00FDFC22FCE4CFCECDCC24E0501174FF80C9
:1003AB00EDC3CC13CCCD13CDCE13CECF13CF047066
:0703BB00F030D5DE02068ED2
:0D002600ED33EC3360065004EC6480FC22E6
:1003C200E9D2E7C933E833F892D5EDD2E7CD33EC81
:0703D20033FC5002B2D522FA
:1003D900EC30E7100FBF000C0EBE00080DBD000485
:1003E9000BEB6014A2D5EB13FCED92E7FD2274FF31
:1003F900FCFDFEFF22E480F8A2D574FF13FC7D808A
:03040900E480EF9D
:10239300021EBAE493A3F8E493A34003F68001F288
:1023A30008DFF48029E493A3F85407240CC8C3334B
:1023B300C4540F4420C8834004F456800146F6DF1A
:1023C300E4800B0102040810204080901388E47E0F
:1023D300019360BCA3FF543F30E509541FFEE4930F
:1023E300A360010ECF54C025E060A840B8E493A3D6
:1023F300FAE493A3F8E493A3C8C582C8CAC583CA01
:10240300F0A3C8C582C8CAC583CADFE9DEE780BEB8
:0115350000B5
:10040C00BB010CE58229F582E5833AF583E02250A5
:10041C0006E92582F8E622BBFE06E92582F8E222EF
:0D042C00E58229F582E5833AF583E4932209
:10043900F8BB010DE58229F582E5833AF583E8F0F9
:10044900225006E92582C8F622BBFE05E92582C8A5
:02045900F2228D
:10045B00EF8DF0A4A8F0CF8CF0A428CE8DF0A42EB5
:02046B00FE226F
:10046D00BC000BBE0029EF8DF084FFADF022E4CC73
:10047D00F875F008EF2FFFEE33FEEC33FCEE9DEC3C
:10048D00984005FCEE9DFE0FD5F0E9E4CEFD22ED82
:10049D00F8F5F0EE8420D21CFEADF075F008EF2FCC
:1004AD00FFED33FD4007985006D5F0F222C398FDBD
:0504BD000FD5F0EA225A
:1004C200BB010A89828A83E0F5F0A3E02250068705
:1004D200F009E71922BBFE07E3F5F009E3192289C7
:0B04E200828A83E493F5F074019322FA
:1004ED00BB0110E58229F582E5833AF583E0F5F04D
:1004FD00A3E0225009E92582F886F008E622BBFE2A
:10050D000AE92582F8E2F5F008E222E5832AF5836F
:08051D00E993F5F0A3E9932234
:10052500BB010A89828A83F0E5F0A3F0225006F721
:0F05350009A7F01922BBFE06F3E5F009F319221E
:10054400F8BB0111E58229F582E5833AF583E8F0E9
:10055400E5F0A3F0225009E92582C8F608A6F022A6
:0D056400BBFE09E92582C8F2E5F008F2228D
:10057100E88FF0A4CC8BF0A42CFCE98EF0A42CFC29
:100581008AF0EDA42CFCEA8EF0A4CDA8F08BF0A4A7
:100591002DCC3825F0FDE98FF0A42CCD35F0FCEB06
:1005A1008EF0A4FEA9F0EB8FF0A4CFC5F02ECD39CB
:0F05B100FEE43CFCEAA42DCE35F0FDE43CFC2238
:1005C00075F008758200EF2FFFEE33FECD33CDCCF2
:1005D00033CCC58233C5829BED9AEC99E582984075
:1005E0000CF582EE9BFEED9AFDEC99FC0FD5F0D652
:1005F000E4CEFBE4CDFAE4CCF9A88222B800C1B97C
:100600000059BA002DEC8BF084CFCECDFCE5F0CBB9
:10061000F97818EF2FFFEE33FEED33FDEC33FCEBF2
:1006200033FB10D703994004EB99FB0FD8E5E4F9AD
:10063000FA227818EF2FFFEE33FEED33FDEC33FC9A
:10064000C933C910D7059BE99A4007EC9BFCE99A8E
:10065000F90FD8E0E4C9FAE4CCFB2275F010EF2FD3
:10066000FFEE33FEED33FDCC33CCC833C810D707D3
:100670009BEC9AE899400AED9BFDEC9AFCE899F80E
:0E0680000FD5F0DAE4CDFBE4CCFAE4C8F922A1
:10263600C2D5E830E70FB2D5E4C39BFBE49AFAE4CF
:1026460099F9E498F8EC30E717B2D512266C120522
:10265600FCE4C39BFBE49AFAE499F9E498F8800356
:102666001205FC30D50DE4C39FFFE49EFEE49DFDFC
:04267600E49CFC22C2
:0E068E00C3E49FFFE49EFEE49DFDE49CFC227D
:10069C00EB9FF5F0EA9E42F0E99D42F0EC6480C8D5
:0606AC0064809845F02275
:1006B200BB010DE58229F582E5833AF58302077FC6
:1006C2005007E92582F8020772BBFE07E92582F886
:1006D20002078BE58229F582E5833AF583020798C2
:0C06E200ECF0A3EDF0A3EEF0A3EFF0228B
:1006EE00A8828583F0D083D08212070512070512E7
:1006FE000705120705E473E493A3C583C5F0C5830C
:10070E00C8C582C8F0A3C583C5F0C583C8C582C855
:01071E0022B8
:10071F00D083D082F8E4937012740193700DA3A369
:10072F0093F8740193F5828883E47374029368607D
:06073F00EFA3A3A380DF7D
:10074500D083D082F8E4937012740193700DA3A343
:1007550093F8740193F5828883E473740293B5F07A
:0D076500067403936860E9A3A3A3A380D8E2
:0D077200E6FB08E6F908E6FA08E6CBF822F7
:0C077F00E0F8A3E0F9A3E0FAA3E0FB22FD
:0D078B00E2FB08E2F908E2FA08E2CBF822EE
:10079800E493F8740193F9740293FA740393FB22B7
:00000001FF
